{"abi":[{"type":"function","name":"verifyProof","inputs":[{"name":"_pA","type":"uint256[2]","internalType":"uint256[2]"},{"name":"_pB","type":"uint256[2][2]","internalType":"uint256[2][2]"},{"name":"_pC","type":"uint256[2]","internalType":"uint256[2]"},{"name":"_pubSignals","type":"uint256[3]","internalType":"uint256[3]"}],"outputs":[{"name":"","type":"bool","internalType":"bool"}],"stateMutability":"view"}],"bytecode":{"object":"0x60808060405234610016576105a9908161001c8239f35b600080fdfe6080604052600436101561001257600080fd5b6000803560e01c6311479fea1461002857600080fd5b3461037f57610160908160031936011261037f5761004536610382565b913660c41161037b5761005736610394565b36610164116103775760209384916104006040526100f36101043561007b816103a2565b6100ee6101243561008b816103a2565b6100e9610144359361009c856103a2565b7f2b5fb62f34b254e63e11dae5c1500fea1514b69701d2381d7927c867af2dae546080527f2e18c03f945c7f19c9935b59e0ce7d6e873721c0c902eca666125b250a99fd8060a0526103d5565b61045f565b6104e9565b61010093828593358452847f30644e72e131a029b85045b68181585d97816a916871ca8d3c208c16d87cfd47910135810306610120526044356101405260643590526084356101805260a4356101a0527f2d72b91856ddf25d6e5798d0faa42068100c9b75bde316f57c93c9cd3dabbe9e6101c0527f25fd8e3731fa3ad33103ef66545f76866a8091e4e9ba81faaccc3482fdf4621f6101e0527f2374bc6997207768cb51fd012fdb45019f618cf98934e34ebd45dccbe64845b3610200527f13f3b23a3bacbc8d5e6d83b7abc420c716b8e3a6746e1ef4b8f4930ea27c3131610220527f23f6f13a537477bf24a6c48e50d971ecb363b7fabd10cfb609f3ca09e8db4c4b610240527f02858aca315a02f15855c581630e113f09ec9807b89d2d23c9461c1669ad3bed610260526080516102805260a0516102a0527f198e9393920d483a7260bfb731fb5d25f1aa493335a9e71297e485b7aef312c26102c0527f1800deef121f1e76426a00665e5c4479674322d4f75edadd46debd5cd992f6ed6102e05282610300917f090689d0585ff075ec9e99ad690c3395bc4b313370b38ef355acdadcd122975b83527f12c85ea5db8c6deb4aab71808dcb408fe3d1e7690c43d37b4ce6cc0166fa7daa610320528035610340520135610360527f12de764f9b6055528ff412df754a6b2e54f635943a4f94b602abce5fa1578303610380527f2ba35e591ad4eb9d3828936fbd336678f50466856387ed044acaf6b840ecb0846103a0527f142ca2d70f9eaeadfc90bbf936efa43ca3dbb1ea46fbb5847f15102074fb55126103c0527f1873343221e7af28e5d0be047e81ff7ab8d84627e49192952a7d5bdcda6427416103e0528160086107cf195a01fa9051168152f35b8280fd5b5080fd5b80fd5b9060049160441161038f57565b600080fd5b9060c4916101041161038f57565b7f30644e72e131a029b85045b68181585d2833e84879b9709143e1f593f000000111156103cb57565b6000805260206000f35b604051907f194f56bf3752560f4529a1e6a37b468eb9059bfaa4d61e4532b3d543f09450d582527f151acf8fff4091f5884120b2dded0edb5affb0f09019674d93eeff95af4d1a406020830152604082019081526107cf196040836060816007855a01fa156103cb5760409260066080939284938451905260a05160608401525a01fa156103cb57565b604051907f08634ad9c97649717f9f8dbc8904e121f7b6ccc14d55c7f96aed3a5bbf86acd382527f29ec47d52be464a9b72834e67db8badaf3aad92fa3efe26417ca80f3c991817b6020830152604082019081526107cf196040836060816007855a01fa156103cb5760409260066080939284938451905260a05160608401525a01fa156103cb57565b604051907f2e2b0a21b56c829926fe93f8a43f1e1a7ade96e7e9c7b85a5f1f13a68972e65182527f27206c0aaa820943c09969c23b721d36c937838498e295aa3105fb5ed880a7456020830152604082019081526107cf196040836060816007855a01fa156103cb5760409260066080939284938451905260a05160608401525a01fa156103cb5756fea26469706673582212202ce5cb9e0161daa13d99e1b53fcc0abec717ff655c810ffdf97b2d5112bd5be964736f6c63430008130033","linkReferences":{}},"methodIdentifiers":{"verifyProof(uint256[2],uint256[2][2],uint256[2],uint256[3])":"11479fea"},"id":39}